:0600000000F038EF09F0EA
:10060000003132333435363738392A3023436F726C
:10061000726563742050617373776F726400456E06
:100620007465722050617373776F72643A0041632E
:1006300063657373204772616E7465640050617303
:1006400073776F72642053617665640057726F6EC2
:10065000672050617373776F72640057726F6E67B3
:10066000204F6C64205061737300456E7465722076
:100670004E657720506173730052657475726E69B0
:100680006E672E2E2E0054727920416761696E2E9E
:100690002E2E004368616E676520506173733A00C7
:1006A000507265706172652E2E2E00456E746572F3
:1006B000204F6C643A000000FFFF0F0EC16E000E69
:1006C0008A6EF00E8B165AEC07F0B7EC09F0C0EC0E
:1006D00009F09FEC09F0256E010E0A6E2550010EFF
:1006E00020EC09F0060E0B6E1E0E0A6EEDEC08F003
:1006F000256E010E0A6E2550020E20EC09F065EC05
:1007000008F0256E000E2E6E255089EC04F02D6E3B
:100710002D28D8B4FAD72D50230AD8A42FD065ECB1
:1007200008F061EC05F09FEC09F0256E010E0A6EF1
:100730002550010E20EC09F0060E0B6E1E0E0A6EFF
:10074000EDEC08F0256E010E0A6E2550020E20EC2D
:1007500009F065EC08F0256E000E2E6E2550000E97
:10076000026E260E016E000E046E000E036E000E69
:10077000066E050E056E07EC09F0C7D72D502A0A44
:10078000D8A432D02E50D8B4C0D72E062E50010D8A
:10079000260EF324D96E000EF420DA6E000EDF6E02
:1007A000256E010E0A6E2550020E20EC09F0256E12
:1007B000000E2B6E255004D02A0E93EC09F02B2A44
:1007C0002E502B5CD8A0F8D72EC02CF004D0200ED1
:1007D00093EC09F02C2A030E2C64F9D72E280A6E0C
:1007E000020E20EC09F091D7040E2E5CD8B00ED08A
:1007F0002E50010D260EF324D96E000EF420DA6E71
:100800002DC0DFFF2E2A2A0E93EC09F0030E2E6472
:100810007CD7256E000E2A6E2550000E026E960EB5
:10082000016E4DEC09F0000E026E260E016E000EF8
:10083000046E300E036E41EC08F002500110D8A493
:100840001FD09FEC09F0256E010E0A6E2550010E97
:1008500020EC09F0060E0B6E0D0E0A6EEDEC08F0A2
:10086000256E010E0A6E2550020E20EC09F0060ED0
:100870000B6E2E0E0A6EEDEC08F062EC09F01ED045
:100880009FEC09F0256E010E0A6E2550010E20EC3A
:1008900009F0060E0B6E4C0E0A6EEDEC08F0256E9C
:1008A000010E0A6E2550020E20EC09F0060E0B6EAA
:1008B000860E0A6EEDEC08F0ACEC08F065EC08F082
:1008C000256E000E2E6E2550000E026E260E016E55
:1008D000000E046E000E036E000E066E050E056E11
:1008E00007EC09F09FEC09F0256E010E0A6E255009
:1008F000010E20EC09F0060E0B6E1E0E0A6EEDECDA
:1009000008F0256E010E0A6E2550020E20EC09F04B
:10091000FCD6FFFF1468106E000E176E10502DD01D
:10092000C7EC09F0176602D08B800CD01704D8A44E
:1009300002D08B8207D01750020AD8A402D08B8431
:1009400001D08B863C0EE82EFED782A805D017502A
:10095000030DF3CF14F00DD082AA04D01750030D6D
:10096000F32806D082AC05D01750030DF350020FC8
:10097000146E1428D8A404D0172A030E1764D0D7F5
:10098000C7EC09F01428D8A402D02F6865D0000E57
:10099000026E0F0E016E4DEC09F0C7EC09F014C0A9
:1009A00001F0026A000E046E030E036EB0EC06F056
:1009B0000150166E8B968B948B928B90166602D09C
:1009C0008B800CD01604D8A402D08B8207D016508E
:1009D000020AD8A402D08B8401D08B863C0EE82E6C
:1009E000FED7156882A805D01650030DF3CF15F079
:1009F0000DD082AA04D01650030DF32806D082AC85
:100A000005D01650030DF350020F156EC7EC09F018
:100A10001528D8B421D0050E136EDC0E126E06D048
:100A2000000E026E010E016E4DEC09F082A882BA32
:100A300002D082AC08D01206D8A013061228D8B46F
:100A40001328D8A4EDD7000E026E1E0E016E4DECD9
:100A500009F02F50156202D0FF0E31D015C02FF0D3
:100A6000000E046E030E036E15C001F0026AB0ECB6
:100A700006F001C00AF002C00BF0000E0D6E030E6E
:100A80000C6ECEEC08F0010E106E060E116E0A50C0
:100A900010260B50112215C001F0026A000E046EE0
:100AA000030E036E0AEC07F00150102602501122CB
:100AB00010C0F6FF11C0F7FF0800FFFFF55012004D
:100AC000FFFFFFFF9FEC09F01F6E010E0A6E1F5023
:100AD000010E20EC09F0060E0B6E930E0A6EEDEC83
:100AE00008F01F6E010E0A6E1F50020E20EC09F076
:100AF000060E0B6EA00E0A6EEDEC08F0010E026EF3
:100B0000900E016E4DEC09F09FEC09F01F6E010E86
:100B10000A6E1F50010E20EC09F0060E0B6EAB0E94
:100B20000A6EEDEC08F01F6E010E0A6E1F50020EE9
:100B300020EC09F065EC08F0000E196E200E186E1E
:100B400033EC06F0000E026E200E016E000E046EF5
:100B5000300E036E000E066E040E056E9DEC07F05F
:100B600002500110D8B427D09FEC09F01F6E010E7F
:100B70000A6E1F50010E20EC09F0060E0B6E5B0E84
:100B80000A6EEDEC08F01F6E010E0A6E1F50020E89
:100B900020EC09F0060E0B6E790E0A6EEDEC08F0F3
:100BA000ACEC08F065EC08F0030E026E200E016E4E
:100BB0004DEC09F056D09FEC09F01F6E010E0A6E45
:100BC0001F50010E20EC09F0060E0B6E6A0E0A6E25
:100BD000EDEC08F01F6E010E0A6E1F50020E20ECA5
:100BE00009F065EC08F0000E196E200E186E33EC5B
:100BF00006F0000E026E300E016E000E046E200E26
:100C0000036E000E066E040E056E89EC08F01F6E72
:100C1000000E346E1F509FEC09F01F6E010E0A6E1D
:100C20001F50010E20EC09F0060E0B6E3D0E0A6EF1
:100C3000EDEC08F01F6E010E0A6E1F50020E20EC44
:100C400009F0060E0B6E790E0A6EEDEC08F062EC00
:100C500009F065EC08F0010E026EF40E016E4DEC29
:100C600009F01200FFFFFFFF1A6E000E1E6E1A50F1
:100C700019C002F018C001F0000E046E000E036EE1
:100C8000000E066E050E056E07EC09F01A6E010ED9
:100C90000A6E1A50020E20EC09F055D089EC04F0CF
:100CA0001D6E1D28D8A407D0000E026E050E016E21
:100CB0004DEC09F048D01D502A0AD8A432D01E505D
:100CC000D8B441D01E061E50010DF3501824D96E21
:100CD000F4501920DA6E000EDF6E1A6E010E0A6EE5
:100CE0001A50020E20EC09F01A6E000E1B6E1A50FC
:100CF00004D02A0E93EC09F01B2A1E501B5CD8A0CE
:100D0000F8D71EC01CF004D0200E93EC09F01C2A6A
:100D1000030E1C64F9D71E280A6E020E20EC09F09F
:100D200012D01D50230AD8B40ED01E50010DF3501E
:100D30001824D96EF4501920DA6E1DC0DFFF1E2A68
:100D40002A0E93EC09F0030E1E64A8D720EE04F0DF
:100D50001850D9261950DA22000EDF6E1200FFFF5C
:100D6000FFFF056E000E076E05500450800AF36EFB
:100D7000800EF35C000ED8B4035CD8B008D0036CCE
:100D8000041ED8B0042A056E010E076E05500250ED
:100D9000800AF36E800EF35C000ED8B4015CD8B00C
:100DA00006D0016C021ED8B0022A010E071A000EEE
:100DB000096E000E086E04500310D8B41ED0056EE4
:100DC000010E066E055004D0D89003360436062A6C
:100DD00004AEFAD7D890083609360350015C0450A7
:100DE0000258D8A005D00350015E0450025A088072
:100DF000D89004320332062EEDD70750D8B404D071
:100E0000086C091ED8B0092A08C001F009C002F018
:100E10001200FFFFFFFF056E000E076E0550025027
:100E2000800AF36E800EF35C000ED8B4015CD8B07B
:100E300008D0016C021ED8B0022A056E010E076EA2
:100E400005500450800AF36E800EF35C000ED8B497
:100E5000035CD8B004D0036C041ED8B0042A04503C
:100E60000310D8B41AD0056E010E066E055004D0DA
:100E7000D89003360436062A04AEFAD70350015C34
:100E800004500258D8A004D00350015E0450025A06
:100E9000D89004320332062EF1D70750D8B404D0CC
:100EA000016C021ED8B0022A01C001F002C002F09B
:100EB0001200FFFFFFFF000E8A6EF00E8B1693905C
:100EC00093929398939A939C939E8A908A92000E01
:100ED000026E140E016E4DEC09F0030EDEEC07F00D
:100EE00085EC09F0000E026E050E016E4DEC09F066
:100EF000030EDEEC07F085EC09F0C80EE82EFED7F5
:100F0000030EDEEC07F085EC09F0C80EE82EFED7E4
:100F1000020EDEEC07F085EC09F0C80EE82EFED7D5
:100F2000280EABEC09F00C0EABEC09F0060EABECA6
:100F300009F09FEC09F01200FFFFFFFF31D001C064
:100F4000D9FF02C0DAFFDF50D8B40ED003C0D9FFFA
:100F500004C0DAFFDF50076E01C0D9FF02C0DAFF1C
:100F6000DF500718D8B418D003C0D9FF04C0DAFF87
:100F7000DF50076E086A071E081E074A082A01C0CC
:100F8000D9FF02C0DAFFDF50096E09500724016E55
:100F9000000E0820026E10D0014A022A034A042AD9
:100FA0000506D8A006060528D8B40628D8A4C7D7B1
:100FB000000E026E000E016E1200FFFFFFFFE8CF71
:100FC00002F002C001F0010E0116013A8A50011828
:100FD000EF0B01188A6E02C001F0D8900132010EA9
:100FE0000116013A01468A500118DF0B01188A6E7A
:100FF00002C001F0D8900132D8900132010E0116E2
:10100000013A014601468A500118BF0B01188A6E49
:1010100002C001F0D8900132D8900132D89001324C
:10102000010E0116013201328A5001187F0B01189E
:101030008A6E1200FFFFFFFFE8CF07F0CEEC09F049
:10104000066ED3EC09F0000EF36A0462F32AF3CFC4
:1010500005F08A500518FE0B05188A6E07380F0B2D
:101060000F0BDEEC07F085EC09F007500F0BDEEC00
:1010700007F085EC09F08A90065076EC09F0120032
:10108000FFFFFFFF04D0014A022A034A042A01C0DD
:10109000D9FF02C0DAFFDF50056E03C0D9FF04C0DC
:1010A000DAFFDF5000080524066E066607D001C08F
:1010B000D9FF02C0DAFFDF50D8A4E5D70650016E91
:1010C000026A01BE02061200FFFFFFFF070E056E57
:1010D000D00E046E08D0C7EC09F0000E026E010EAF
:1010E000016E4DEC09F082A882BA02D082AC08D021
:1010F0000406D8A005060428D8B40528D8A4EBD740
:10110000000E026E280E016E4DEC09F02F681200E1
:10111000FFFFFFFF04C00AF003C009F002C008F09F
:1011200001C007F00ED009C0D9FF0AC0DAFF07C01E
:10113000E1FF08C0E2FFDFCFE7FF094A0A2A074ABA
:10114000082A0506D8A006060528D8B40628D8B46B
:101150001200FFFFE8D7FFFFFFFFCEEC09F0056E9E
:10116000D3EC09F0046E000E066E04500FD08C8490
:10117000000E026EFA0E016E4DEC09F08C94000E1A
:10118000026EC80E016E4DEC09F0062A020E0664CE
:10119000EED7055076EC09F01200FFFFFFFF0A5072
:1011A0000C02F3CF0EF0F4CF0FF00A500D02F3CF84
:1011B000F4FFF36AF3500E26F4500F220B500C028A
:1011C000F3CFF4FFF36AF3500E26F4500F220EC053
:1011D0000AF00FC00BF01200FFFFFFFF0BD00AC098
:1011E000F6FF0BC0F7FF0800FFFFF55093EC09F086
:1011F0000A4A0B2A0AC0F6FF0BC0F7FF0800FFFFE0
:10120000F5500009D8B41200FFFFE9D7FFFFFFFF38
:1012100002C008F001C007F008D007C0D9FF08C01D
:10122000DAFF03C0DFFF074A082A0506D8A0060632
:101230000528D8B40628D8B41200FFFFEED7FFFF68
:10124000FFFFE8CF0CF00C04D8B404D0000E0E6EF3
:10125000C00E03D0000E0E6E800E0D6E0DC00FF08E
:101260000A500F240B6E0B04ABEC09F01200FFFFC9
:10127000B00EF66E130EF76E000EF86E00EE2FF045
:1012800010EE06F00900F5CFEEFFE550E150FAE16F
:10129000000EF86E00015CEF03F0FFFF08D0040EB3
:1012A000036EE50EE82EFED7032EFCD700D0010614
:1012B000D8A002060128D8B40228D8B41200FFFF33
:1012C000EED7FFFFFFFFCEEC09F0046ED3EC09F080
:1012D0008C948C86070E026ED00E016E4DEC09F0D8
:1012E0008C96045076EC09F01200FFFFFFFFE8CF68
:1012F00002F0F00E8B1602C001F00F0E0116945092
:10130000F00B0110946E1200FFFFFFFF8A82320E75
:10131000E82EFED78A92000E026E020E016E4DEC90
:1013200009F01200FFFFFFFFE8CF09F0086E010E81
:10133000046E085009501BEC08F01200FFFFFFFF7D
:10134000010EABEC09F0000E026E020E016E4DECC8
:1013500009F01200FFFFFFFFE8CF09F0086E000E52
:10136000046E085009501BEC08F01200FFFFFFFF4D
:10137000F00E8B16700E946EC7EC09F01200FFFF92
:10138000FFFF959495968C948C961200FFFFFFFFBB
:10139000F00E8B16F00E94161200FFFFFFFF945014
:1013A0000F0B1200FFFFFFFF0F0E94121200FFFF42
:0813B000FF3432363900FFFF63
:020000040020DA
:08000000FFFFFFFFFFFFFFFF00
:020000040030CA
:0E000000FF220E0EFF0181FF0FC00FE00F4028
:00000001FF
